:100000000C9434000C9446000C9446000C9446006A
:100010000C9446000C9446000C9446000C94460048
:100020000C9446000C9446000C9446000C94460038
:100030000C9446000C9446000C9446000C94460028
:100040000C9446000C9446000C9446000C94460018
:100050000C9446000C9446000C9446000C94460008
:100060000C9446000C94460011241FBECFEFD8E03C
:10007000DEBFCDBF21E0A0E0B1E001C01D92AC30F9
:10008000B207E1F70E941A010C9439010C940000A8
:100090008CE38AB980E284B988EF84B9089583B18A
:1000A00083B180FD13C0109201011092000181FD07
:1000B00015C0109207011092060182FF17C081E05F
:1000C00090E090930B0180930A01089521E030E0C5
:1000D000309301012093000181FFEBCF21E030E05C
:1000E000309307012093060182FDE9CF10920B01A6
:1000F00010920A0108952D9A2FEF83ED90E321507D
:1001000080409040E1F700C0000015B82FEF83ED6C
:1001100090E3215080409040E1F700C00000089536
:100120008091000190910101892BE9F080910601F5
:1001300090910701009709F049C020910A01309180
:100140000B01232B09F042C081E090E0909309015C
:100150008093080180E821E030E030930301209390
:10016000020190E41DC02091060130910701211584
:10017000310509F580E040910A0150910B0130935F
:1001800009012093080191E020E0452B09F490E05B
:1001900090930201209303019295990F990F907CFF
:1001A00020E040E050E05093050140930401822B91
:1001B000892B8BB9089540910A0150910B0141158B
:1001C000510541F580E821E030E0D9CF10920901D6
:1001D00010920801892B61F120910A0130910B01E5
:1001E00081E090E02115310569F080930201909340
:1001F0000301232B99F4982F9295990F990F907CD6
:1002000080E0CECF80E08093020190930301232B06
:1002100091F304C020E030E080E0B1CF982F9295B8
:10022000990F990F907C80E020E241E050E0BBCF35
:1002300080E091CF8CE38AB980E284B988EF84B9F9
:100240000E944F000E9490002D9A2FEF83ED90E3C3
:10025000215080409040E1F700C0000015B82FEF1A
:1002600083ED90E3215080409040E1F700C0000012
:06027000E7CFF894FFCF78
:00000001FF
